{
  "contractName": "TaskHelper",
  "abi": [
    {
      "constant": true,
      "inputs": [
        {
          "name": "",
          "type": "uint256"
        }
      ],
      "name": "idToTask",
      "outputs": [
        {
          "name": "ipfsHash",
          "type": "string"
        },
        {
          "name": "childDoing",
          "type": "address"
        },
        {
          "name": "parent",
          "type": "address"
        },
        {
          "name": "completed",
          "type": "bool"
        },
        {
          "name": "verified",
          "type": "bool"
        }
      ],
      "payable": false,
      "stateMutability": "view",
      "type": "function"
    },
    {
      "constant": true,
      "inputs": [],
      "name": "task_id",
      "outputs": [
        {
          "name": "",
          "type": "uint256"
        }
      ],
      "payable": false,
      "stateMutability": "view",
      "type": "function"
    },
    {
      "constant": true,
      "inputs": [
        {
          "name": "",
          "type": "address"
        },
        {
          "name": "",
          "type": "uint256"
        }
      ],
      "name": "parentToChildren",
      "outputs": [
        {
          "name": "",
          "type": "address"
        }
      ],
      "payable": false,
      "stateMutability": "view",
      "type": "function"
    },
    {
      "anonymous": false,
      "inputs": [
        {
          "indexed": true,
          "name": "id",
          "type": "uint256"
        },
        {
          "indexed": true,
          "name": "parent",
          "type": "address"
        }
      ],
      "name": "TaskCreated",
      "type": "event"
    },
    {
      "anonymous": false,
      "inputs": [
        {
          "indexed": true,
          "name": "id",
          "type": "uint256"
        },
        {
          "indexed": true,
          "name": "childDoing",
          "type": "address"
        }
      ],
      "name": "DoingTask",
      "type": "event"
    },
    {
      "constant": true,
      "inputs": [],
      "name": "getLatestTaskId",
      "outputs": [
        {
          "name": "",
          "type": "uint256"
        }
      ],
      "payable": false,
      "stateMutability": "view",
      "type": "function"
    },
    {
      "constant": true,
      "inputs": [
        {
          "name": "id",
          "type": "uint256"
        }
      ],
      "name": "getCorrespondingTask",
      "outputs": [
        {
          "name": "",
          "type": "string"
        },
        {
          "name": "",
          "type": "address"
        },
        {
          "name": "",
          "type": "address"
        },
        {
          "name": "",
          "type": "bool"
        },
        {
          "name": "",
          "type": "bool"
        }
      ],
      "payable": false,
      "stateMutability": "view",
      "type": "function"
    }
  ],
  "bytecode": "0x608060405234801561001057600080fd5b5061078e806100206000396000f30060806040526004361061006d576000357c0100000000000000000000000000000000000000000000000000000000900463ffffffff1680631c8187a6146100725780632165efd214610194578063386e8dd3146101bf57806341a7c55b146101ea578063b33477ac14610277575b600080fd5b34801561007e57600080fd5b5061009d60048036038101908080359060200190929190505050610399565b60405180806020018673ffffffffffffffffffffffffffffffffffffffff1673ffffffffffffffffffffffffffffffffffffffff1681526020018573ffffffffffffffffffffffffffffffffffffffff1673ffffffffffffffffffffffffffffffffffffffff1681526020018415151515815260200183151515158152602001828103825287818151815260200191508051906020019080838360005b8381101561015557808201518184015260208101905061013a565b50505050905090810190601f1680156101825780820380516001836020036101000a031916815260200191505b50965050505050505060405180910390f35b3480156101a057600080fd5b506101a96104c1565b6040518082815260200191505060405180910390f35b3480156101cb57600080fd5b506101d46104c7565b6040518082815260200191505060405180910390f35b3480156101f657600080fd5b50610235600480360381019080803573ffffffffffffffffffffffffffffffffffffffff169060200190929190803590602001909291905050506104d0565b604051808273ffffffffffffffffffffffffffffffffffffffff1673ffffffffffffffffffffffffffffffffffffffff16815260200191505060405180910390f35b34801561028357600080fd5b506102a26004803603810190808035906020019092919050505061051d565b60405180806020018673ffffffffffffffffffffffffffffffffffffffff1673ffffffffffffffffffffffffffffffffffffffff1681526020018573ffffffffffffffffffffffffffffffffffffffff1673ffffffffffffffffffffffffffffffffffffffff1681526020018415151515815260200183151515158152602001828103825287818151815260200191508051906020019080838360005b8381101561035a57808201518184015260208101905061033f565b50505050905090810190601f1680156103875780820380516001836020036101000a031916815260200191505b50965050505050505060405180910390f35b6002602052806000526040600020600091509050806000018054600181600116156101000203166002900480601f0160208091040260200160405190810160405280929190818152602001828054600181600116156101000203166002900480156104455780601f1061041a57610100808354040283529160200191610445565b820191906000526020600020905b81548152906001019060200180831161042857829003601f168201915b5050505050908060010160009054906101000a900473ffffffffffffffffffffffffffffffffffffffff16908060020160009054906101000a900473ffffffffffffffffffffffffffffffffffffffff16908060020160149054906101000a900460ff16908060020160159054906101000a900460ff16905085565b60005481565b60008054905090565b6001602052816000526040600020818154811015156104eb57fe5b906000526020600020016000915091509054906101000a900473ffffffffffffffffffffffffffffffffffffffff1681565b606060008060008061052d610702565b6002600088815260200190815260200160002060a06040519081016040529081600082018054600181600116156101000203166002900480601f0160208091040260200160405190810160405280929190818152602001828054600181600116156101000203166002900480156105e55780601f106105ba576101008083540402835291602001916105e5565b820191906000526020600020905b8154815290600101906020018083116105c857829003601f168201915b505050505081526020016001820160009054906101000a900473ffffffffffffffffffffffffffffffffffffffff1673ffffffffffffffffffffffffffffffffffffffff1673ffffffffffffffffffffffffffffffffffffffff1681526020016002820160009054906101000a900473ffffffffffffffffffffffffffffffffffffffff1673ffffffffffffffffffffffffffffffffffffffff1673ffffffffffffffffffffffffffffffffffffffff1681526020016002820160149054906101000a900460ff161515151581526020016002820160159054906101000a900460ff161515151581525050905080600001518160400151826020015183606001518460800151849450955095509550955095505091939590929450565b60a06040519081016040528060608152602001600073ffffffffffffffffffffffffffffffffffffffff168152602001600073ffffffffffffffffffffffffffffffffffffffff16815260200160001515815260200160001515815250905600a165627a7a72305820ee7e082655647eb5f0598e20d033677675d8bc21b52c91517a7a11d3cd19172c0029",
  "source": "pragma solidity ^0.4.17;\n\ncontract TaskHelper {\n\n    uint public task_id;\n    mapping(address => address[]) public parentToChildren;\n\n    mapping(uint => Task) public idToTask;\n\n    struct Task {\n        string ipfsHash;\n        address childDoing;\n        address parent;\n        bool completed;\n\t\tbool verified;\n    }\n\n    //events\n    event TaskCreated(uint indexed id, address indexed parent);\n\tevent DoingTask(uint indexed id, address indexed childDoing);\n    \n    /** @notice Checks if a child (address) is associated to a particular parent (address).\n      * @param parent address of the parent.\n      * @param child address of the child\n      * @return bool if the child is associated to the parent or no.\n      */\n    function doesChildBelongsToParent(address parent, address child) \n        internal \n        view \n        returns (bool) \n        {\n        address[] memory array = parentToChildren[parent];\n        for (uint i = 0; i < array.length; i++) {\n            if (child == array[i]) \n                return true;\n        }\n        return false;\n    }\n    \n    /** @notice Checks if a child (address) is associated to a particular task.\n      * @param id the task id.\n      * @param child address of the child\n      * @return bool if the child is associated to the task or no.\n      */\n    function doesChildBelongsToTask(uint id, address child) internal view returns(bool) {\n        address parent = idToTask[id].parent;\n        return doesChildBelongsToParent(parent, child);\n    }\n   \n\t  //@notice Gets the latest task id.\n    function getLatestTaskId() public view returns (uint) {\n        return task_id;\n    }\n\n    /** @notice Gets the relevant details of a particular task.\n      * @dev Returns individual values of each item of the Task struct\n      * @param id the task id\n      */\n    function getCorrespondingTask(uint id) public view \n        returns (string, address, address, bool, bool) \n        {\n        Task memory task = idToTask[id];\n        return (task.ipfsHash, task.parent, task.childDoing, task.completed, task.verified);\n    }\n}\n\n\n",
  "sourcePath": "/home/rahul/Desktop/react_uport/contracts/TaskHelper.sol",
  "compiler": {
    "name": "solc",
    "version": "0.4.24+commit.e67f0147.Emscripten.clang"
  },
  "schemaVersion": "2.0.1",
  "updatedAt": "2018-07-25T11:46:51.176Z"
}